{"abi":[{"type":"constructor","inputs":[],"stateMutability":"nonpayable"},{"type":"function","name":"aavePool","inputs":[],"outputs":[{"name":"","type":"address","internalType":"contract IPool"}],"stateMutability":"view"},{"type":"function","name":"borrow","inputs":[{"name":"asset","type":"address","internalType":"address"},{"name":"amount","type":"uint256","internalType":"uint256"},{"name":"interestRateMode","type":"uint256","internalType":"uint256"},{"name":"receiver","type":"address","internalType":"address"}],"outputs":[],"stateMutability":"nonpayable"},{"type":"function","name":"initialize","inputs":[{"name":"_aavelPool","type":"address","internalType":"contract IPool"}],"outputs":[],"stateMutability":"nonpayable"},{"type":"function","name":"repayWithATokens","inputs":[{"name":"asset","type":"address","internalType":"address"},{"name":"amount","type":"uint256","internalType":"uint256"},{"name":"interestRateMode","type":"uint256","internalType":"uint256"},{"name":"sender","type":"address","internalType":"address"}],"outputs":[],"stateMutability":"nonpayable"},{"type":"function","name":"router","inputs":[],"outputs":[{"name":"","type":"address","internalType":"address"}],"stateMutability":"view"},{"type":"function","name":"swapBorrowRateMode","inputs":[{"name":"asset","type":"address","internalType":"address"},{"name":"interestRateMode","type":"uint256","internalType":"uint256"}],"outputs":[],"stateMutability":"nonpayable"},{"type":"function","name":"withdraw","inputs":[{"name":"asset","type":"address","internalType":"address"},{"name":"amount","type":"uint256","internalType":"uint256"},{"name":"to","type":"address","internalType":"address"}],"outputs":[{"name":"","type":"uint256","internalType":"uint256"}],"stateMutability":"nonpayable"}],"bytecode":{"object":"0x608060405234801561000f575f80fd5b50610b4f8061001d5f395ff3fe608060405234801561000f575f80fd5b506004361061007a575f3560e01c8063a03e4bc311610058578063a03e4bc3146100cc578063c4d66de8146100f7578063d11481711461010a578063f887ea401461011d575f80fd5b806322e953ac1461007e57806369328dec1461009357806394ba89a2146100b9575b5f80fd5b61009161008c36600461078e565b61012f565b005b6100a66100a13660046107d5565b6101f0565b6040519081526020015b60405180910390f35b6100916100c7366004610814565b6102a0565b6001546100df906001600160a01b031681565b6040516001600160a01b0390911681526020016100b0565b61009161010536600461083e565b61032e565b61009161011836600461078e565b6103ab565b5f546100df906001600160a01b031681565b5f546001600160a01b031633146101615760405162461bcd60e51b815260040161015890610859565b60405180910390fd5b60015460405163a415bcad60e01b81526001600160a01b03868116600483015260248201869052604482018590525f60648301523060848301529091169063a415bcad9060a4015f604051808303815f87803b1580156101bf575f80fd5b505af11580156101d1573d5f803e3d5ffd5b506101ea925050506001600160a01b0385168285610549565b50505050565b5f80546001600160a01b0316331461021a5760405162461bcd60e51b815260040161015890610859565b600154604051631a4ca37b60e21b81526001600160a01b038681166004830152602482018690528481166044830152909116906369328dec906064016020604051808303815f875af1158015610272573d5f803e3d5ffd5b505050506040513d601f19601f82011682018060405250810190610296919061087d565b90505b9392505050565b5f546001600160a01b031633146102c95760405162461bcd60e51b815260040161015890610859565b600154604051634a5d44d160e11b81526001600160a01b03848116600483015260248201849052909116906394ba89a2906044015f604051808303815f87803b158015610314575f80fd5b505af1158015610326573d5f803e3d5ffd5b505050505050565b5f546001600160a01b03161561037c5760405162461bcd60e51b8152602060048201526013602482015272105b1c9958591e481a5b9a5d1a585b1a5e9959606a1b6044820152606401610158565b5f8054336001600160a01b031991821617909155600180549091166001600160a01b0392909216919091179055565b5f546001600160a01b031633146103d45760405162461bcd60e51b815260040161015890610859565b600154604051630b6b65f560e21b81526001600160a01b038681166004830152602482018690526044820185905290911690632dad97d4906064016020604051808303815f875af115801561042b573d5f803e3d5ffd5b505050506040513d601f19601f8201168201806040525081019061044f919061087d565b506001546040516335ea6a7560e01b81526001600160a01b0386811660048301525f9216906335ea6a75906024016101e060405180830381865afa158015610499573d5f803e3d5ffd5b505050506040513d601f19601f820116820180604052508101906104bd919061096a565b61010001516040516370a0823160e01b81523060048201529091506105429083906001600160a01b038416906370a0823190602401602060405180830381865afa15801561050d573d5f803e3d5ffd5b505050506040513d601f19601f82011682018060405250810190610531919061087d565b6001600160a01b0384169190610549565b5050505050565b604080516001600160a01b038416602482015260448082018490528251808303909101815260649091019091526020810180516001600160e01b031663a9059cbb60e01b17905261059b9084906105a0565b505050565b5f6105f4826040518060400160405280602081526020017f5361666545524332303a206c6f772d6c6576656c2063616c6c206661696c6564815250856001600160a01b03166106719092919063ffffffff16565b80519091501561059b57808060200190518101906106129190610a8b565b61059b5760405162461bcd60e51b815260206004820152602a60248201527f5361666545524332303a204552433230206f7065726174696f6e20646964206e6044820152691bdd081cdd58d8d9595960b21b6064820152608401610158565b606061029684845f8585843b6106c95760405162461bcd60e51b815260206004820152601d60248201527f416464726573733a2063616c6c20746f206e6f6e2d636f6e74726163740000006044820152606401610158565b5f80866001600160a01b031685876040516106e49190610acc565b5f6040518083038185875af1925050503d805f811461071e576040519150601f19603f3d011682016040523d82523d5f602084013e610723565b606091505b509150915061073382828661073e565b979650505050505050565b6060831561074d575081610299565b82511561075d5782518084602001fd5b8160405162461bcd60e51b81526004016101589190610ae7565b6001600160a01b038116811461078b575f80fd5b50565b5f805f80608085870312156107a1575f80fd5b84356107ac81610777565b9350602085013592506040850135915060608501356107ca81610777565b939692955090935050565b5f805f606084860312156107e7575f80fd5b83356107f281610777565b925060208401359150604084013561080981610777565b809150509250925092565b5f8060408385031215610825575f80fd5b823561083081610777565b946020939093013593505050565b5f6020828403121561084e575f80fd5b813561029981610777565b6020808252600a90820152692737ba103937baba32b960b11b604082015260600190565b5f6020828403121561088d575f80fd5b5051919050565b6040516101e0810167ffffffffffffffff811182821017156108c457634e487b7160e01b5f52604160045260245ffd5b60405290565b5f602082840312156108da575f80fd5b6040516020810181811067ffffffffffffffff8211171561090957634e487b7160e01b5f52604160045260245ffd5b6040529151825250919050565b80516fffffffffffffffffffffffffffffffff81168114610935575f80fd5b919050565b805164ffffffffff81168114610935575f80fd5b805161ffff81168114610935575f80fd5b805161093581610777565b5f6101e0828403121561097b575f80fd5b610983610894565b61098d84846108ca565b815261099b60208401610916565b60208201526109ac60408401610916565b60408201526109bd60608401610916565b60608201526109ce60808401610916565b60808201526109df60a08401610916565b60a08201526109f060c0840161093a565b60c0820152610a0160e0840161094e565b60e0820152610100610a1481850161095f565b90820152610120610a2684820161095f565b90820152610140610a3884820161095f565b90820152610160610a4a84820161095f565b90820152610180610a5c848201610916565b908201526101a0610a6e848201610916565b908201526101c0610a80848201610916565b908201529392505050565b5f60208284031215610a9b575f80fd5b81518015158114610299575f80fd5b5f5b83811015610ac4578181015183820152602001610aac565b50505f910152565b5f8251610add818460208701610aaa565b9190910192915050565b602081525f8251806020840152610b05816040850160208701610aaa565b601f01601f1916919091016040019291505056fea26469706673582212208df61befeb5c709028baefc1f0b79e138dcb4cb74d9d4528388404284e5a5ab064736f6c63430008140033","linkReferences":{}},"methodIdentifiers":{"aavePool()":"a03e4bc3","borrow(address,uint256,uint256,address)":"22e953ac","initialize(address)":"c4d66de8","repayWithATokens(address,uint256,uint256,address)":"d1148171","router()":"f887ea40","swapBorrowRateMode(address,uint256)":"94ba89a2","withdraw(address,uint256,address)":"69328dec"},"id":43}