{"abi":[{"type":"constructor","inputs":[{"name":"_aaveDebtImplementation","type":"address","internalType":"address"},{"name":"_aavePoolAddressesProvider","type":"address","internalType":"address"}],"stateMutability":"nonpayable"},{"type":"function","name":"FULL_SELL_ORDER_TYPE_HASH","inputs":[],"outputs":[{"name":"","type":"bytes32","internalType":"bytes32"}],"stateMutability":"view"},{"type":"function","name":"ONE_HUNDRED_PERCENT","inputs":[],"outputs":[{"name":"","type":"uint256","internalType":"uint256"}],"stateMutability":"view"},{"type":"function","name":"ORDER_TITLE_TYPE_HASH","inputs":[],"outputs":[{"name":"","type":"bytes32","internalType":"bytes32"}],"stateMutability":"view"},{"type":"function","name":"PARTIAL_SELL_ORDER_TYPE_HASH","inputs":[],"outputs":[{"name":"","type":"bytes32","internalType":"bytes32"}],"stateMutability":"view"},{"type":"function","name":"_getBaseValueFromTokenValue","inputs":[{"name":"token","type":"address","internalType":"address"},{"name":"tokenValue","type":"uint256","internalType":"uint256"},{"name":"tokenPrice","type":"uint256","internalType":"uint256"}],"outputs":[{"name":"","type":"uint256","internalType":"uint256"}],"stateMutability":"view"},{"type":"function","name":"_getTokenValueFromBaseValue","inputs":[{"name":"baseValue","type":"uint256","internalType":"uint256"},{"name":"token","type":"address","internalType":"address"},{"name":"tokenPrice","type":"uint256","internalType":"uint256"}],"outputs":[{"name":"","type":"uint256","internalType":"uint256"}],"stateMutability":"view"},{"type":"function","name":"aaveDebtImplementation","inputs":[],"outputs":[{"name":"","type":"address","internalType":"address"}],"stateMutability":"view"},{"type":"function","name":"aaveOracle","inputs":[],"outputs":[{"name":"","type":"address","internalType":"contract IPriceOracleGetter"}],"stateMutability":"view"},{"type":"function","name":"aavePool","inputs":[],"outputs":[{"name":"","type":"address","internalType":"contract IPool"}],"stateMutability":"view"},{"type":"function","name":"aavePoolAddressesProvider","inputs":[],"outputs":[{"name":"","type":"address","internalType":"contract IPoolAddressesProvider"}],"stateMutability":"view"},{"type":"function","name":"callBorrow","inputs":[{"name":"debt","type":"address","internalType":"address"},{"name":"asset","type":"address","internalType":"address"},{"name":"amount","type":"uint256","internalType":"uint256"},{"name":"interestRateMode","type":"uint256","internalType":"uint256"},{"name":"receiver","type":"address","internalType":"address"}],"outputs":[],"stateMutability":"nonpayable"},{"type":"function","name":"callRepay","inputs":[{"name":"debt","type":"address","internalType":"address"},{"name":"asset","type":"address","internalType":"address"},{"name":"amount","type":"uint256","internalType":"uint256"},{"name":"interestRateMode","type":"uint256","internalType":"uint256"}],"outputs":[],"stateMutability":"nonpayable"},{"type":"function","name":"callRepayWithATokens","inputs":[{"name":"debt","type":"address","internalType":"address"},{"name":"asset","type":"address","internalType":"address"},{"name":"amount","type":"uint256","internalType":"uint256"},{"name":"interestRateMode","type":"uint256","internalType":"uint256"}],"outputs":[],"stateMutability":"nonpayable"},{"type":"function","name":"callRepayWithPermit","inputs":[{"name":"debt","type":"address","internalType":"address"},{"name":"asset","type":"address","internalType":"address"},{"name":"amount","type":"uint256","internalType":"uint256"},{"name":"interestRateMode","type":"uint256","internalType":"uint256"},{"name":"deadline","type":"uint256","internalType":"uint256"},{"name":"permitV","type":"uint8","internalType":"uint8"},{"name":"permitR","type":"bytes32","internalType":"bytes32"},{"name":"permitS","type":"bytes32","internalType":"bytes32"}],"outputs":[],"stateMutability":"nonpayable"},{"type":"function","name":"callSupply","inputs":[{"name":"debt","type":"address","internalType":"address"},{"name":"asset","type":"address","internalType":"address"},{"name":"amount","type":"uint256","internalType":"uint256"}],"outputs":[],"stateMutability":"nonpayable"},{"type":"function","name":"callSupplyWithPermit","inputs":[{"name":"debt","type":"address","internalType":"address"},{"name":"asset","type":"address","internalType":"address"},{"name":"amount","type":"uint256","internalType":"uint256"},{"name":"deadline","type":"uint256","internalType":"uint256"},{"name":"permitV","type":"uint8","internalType":"uint8"},{"name":"permitR","type":"bytes32","internalType":"bytes32"},{"name":"permitS","type":"bytes32","internalType":"bytes32"}],"outputs":[],"stateMutability":"nonpayable"},{"type":"function","name":"callSwapBorrowRateMode","inputs":[{"name":"debt","type":"address","internalType":"address"},{"name":"asset","type":"address","internalType":"address"},{"name":"interestRateMode","type":"uint256","internalType":"uint256"}],"outputs":[],"stateMutability":"nonpayable"},{"type":"function","name":"callWithdraw","inputs":[{"name":"debt","type":"address","internalType":"address"},{"name":"asset","type":"address","internalType":"address"},{"name":"amount","type":"uint256","internalType":"uint256"},{"name":"to","type":"address","internalType":"address"}],"outputs":[],"stateMutability":"nonpayable"},{"type":"function","name":"cancelDebtCurrentOrders","inputs":[{"name":"debt","type":"address","internalType":"address"}],"outputs":[],"stateMutability":"nonpayable"},{"type":"function","name":"createDebt","inputs":[],"outputs":[{"name":"","type":"address","internalType":"address"}],"stateMutability":"nonpayable"},{"type":"function","name":"debtNonces","inputs":[{"name":"","type":"address","internalType":"address"}],"outputs":[{"name":"","type":"uint256","internalType":"uint256"}],"stateMutability":"view"},{"type":"function","name":"debtOwners","inputs":[{"name":"","type":"address","internalType":"address"}],"outputs":[{"name":"","type":"address","internalType":"address"}],"stateMutability":"view"},{"type":"function","name":"excutePartialSellOrder","inputs":[{"name":"order","type":"tuple","internalType":"struct IAaveRouter.PartialSellOrder","components":[{"name":"title","type":"tuple","internalType":"struct IAaveRouter.OrderTitle","components":[{"name":"debt","type":"address","internalType":"address"},{"name":"debtNonce","type":"uint256","internalType":"uint256"},{"name":"startTime","type":"uint256","internalType":"uint256"},{"name":"endTime","type":"uint256","internalType":"uint256"},{"name":"triggerHF","type":"uint256","internalType":"uint256"}]},{"name":"interestRateMode","type":"uint256","internalType":"uint256"},{"name":"collateralOut","type":"address[]","internalType":"address[]"},{"name":"percents","type":"uint256[]","internalType":"uint256[]"},{"name":"repayToken","type":"address","internalType":"address"},{"name":"repayAmount","type":"uint256","internalType":"uint256"},{"name":"bonus","type":"uint256","internalType":"uint256"},{"name":"v","type":"uint8","internalType":"uint8"},{"name":"r","type":"bytes32","internalType":"bytes32"},{"name":"s","type":"bytes32","internalType":"bytes32"}]}],"outputs":[],"stateMutability":"nonpayable"},{"type":"function","name":"executeFullSaleOrder","inputs":[{"name":"order","type":"tuple","internalType":"struct IAaveRouter.FullSellOrder","components":[{"name":"title","type":"tuple","internalType":"struct IAaveRouter.OrderTitle","components":[{"name":"debt","type":"address","internalType":"address"},{"name":"debtNonce","type":"uint256","internalType":"uint256"},{"name":"startTime","type":"uint256","internalType":"uint256"},{"name":"endTime","type":"uint256","internalType":"uint256"},{"name":"triggerHF","type":"uint256","internalType":"uint256"}]},{"name":"token","type":"address","internalType":"address"},{"name":"percentOfEquity","type":"uint256","internalType":"uint256"},{"name":"v","type":"uint8","internalType":"uint8"},{"name":"r","type":"bytes32","internalType":"bytes32"},{"name":"s","type":"bytes32","internalType":"bytes32"}]},{"name":"minProfit","type":"uint256","internalType":"uint256"}],"outputs":[],"stateMutability":"nonpayable"},{"type":"function","name":"multicall","inputs":[{"name":"data","type":"bytes[]","internalType":"bytes[]"}],"outputs":[],"stateMutability":"nonpayable"},{"type":"function","name":"predictDebtAddress","inputs":[{"name":"user","type":"address","internalType":"address"}],"outputs":[{"name":"","type":"address","internalType":"address"}],"stateMutability":"view"},{"type":"function","name":"transferDebtOwnership","inputs":[{"name":"debt","type":"address","internalType":"address"},{"name":"newOwner","type":"address","internalType":"address"}],"outputs":[],"stateMutability":"nonpayable"},{"type":"function","name":"userNonces","inputs":[{"name":"","type":"address","internalType":"address"}],"outputs":[{"name":"","type":"uint256","internalType":"uint256"}],"stateMutability":"view"},{"type":"event","name":"Borrow","inputs":[{"name":"debt","type":"address","indexed":true,"internalType":"address"},{"name":"asset","type":"address","indexed":true,"internalType":"address"},{"name":"amount","type":"uint256","indexed":false,"internalType":"uint256"},{"name":"interestRateMode","type":"uint256","indexed":false,"internalType":"uint256"}],"anonymous":false},{"type":"event","name":"CancelCurrentDebtOrders","inputs":[{"name":"debt","type":"address","indexed":true,"internalType":"address"}],"anonymous":false},{"type":"event","name":"CreateDebt","inputs":[{"name":"debt","type":"address","indexed":true,"internalType":"address"},{"name":"owner","type":"address","indexed":true,"internalType":"address"}],"anonymous":false},{"type":"event","name":"ExecuteFullSaleOrder","inputs":[{"name":"debt","type":"address","indexed":true,"internalType":"address"},{"name":"debtNonce","type":"uint256","indexed":false,"internalType":"uint256"},{"name":"buyer","type":"address","indexed":false,"internalType":"address"}],"anonymous":false},{"type":"event","name":"ExecutePartialSellOrder","inputs":[{"name":"debt","type":"address","indexed":true,"internalType":"address"},{"name":"debtNonce","type":"uint256","indexed":false,"internalType":"uint256"},{"name":"buyer","type":"address","indexed":false,"internalType":"address"}],"anonymous":false},{"type":"event","name":"Repay","inputs":[{"name":"debt","type":"address","indexed":true,"internalType":"address"},{"name":"asset","type":"address","indexed":true,"internalType":"address"},{"name":"amount","type":"uint256","indexed":false,"internalType":"uint256"},{"name":"interestRateMode","type":"uint256","indexed":false,"internalType":"uint256"}],"anonymous":false},{"type":"event","name":"Supply","inputs":[{"name":"debt","type":"address","indexed":true,"internalType":"address"},{"name":"asset","type":"address","indexed":true,"internalType":"address"},{"name":"amount","type":"uint256","indexed":false,"internalType":"uint256"}],"anonymous":false},{"type":"event","name":"TransferDebtOwnership","inputs":[{"name":"debt","type":"address","indexed":true,"internalType":"address"},{"name":"newOwner","type":"address","indexed":true,"internalType":"address"}],"anonymous":false},{"type":"event","name":"Withdraw","inputs":[{"name":"debt","type":"address","indexed":true,"internalType":"address"},{"name":"asset","type":"address","indexed":true,"internalType":"address"},{"name":"amount","type":"uint256","indexed":false,"internalType":"uint256"},{"name":"to","type":"address","indexed":false,"internalType":"address"}],"anonymous":false},{"type":"error","name":"ECDSAInvalidSignature","inputs":[]},{"type":"error","name":"ECDSAInvalidSignatureLength","inputs":[{"name":"length","type":"uint256","internalType":"uint256"}]},{"type":"error","name":"ECDSAInvalidSignatureS","inputs":[{"name":"s","type":"bytes32","internalType":"bytes32"}]},{"type":"error","name":"FailedDeployment","inputs":[]},{"type":"error","name":"InsufficientBalance","inputs":[{"name":"balance","type":"uint256","internalType":"uint256"},{"name":"needed","type":"uint256","internalType":"uint256"}]}],"bytecode":{"object":"0x60a060405234801562000010575f80fd5b50604051620035e6380380620035e683398101604081905262000033916200017e565b6001600160a01b03828116608052600380546001600160a01b03191691831691821790556040805163026b1d5f60e01b8152905163026b1d5f916004808201926020929091908290030181865afa15801562000091573d5f803e3d5ffd5b505050506040513d601f19601f82011682018060405250810190620000b79190620001b4565b600480546001600160a01b0319166001600160a01b0392831617815560035460408051631f94a27560e31b81529051919093169263fca513a892818101926020929091908290030181865afa15801562000113573d5f803e3d5ffd5b505050506040513d601f19601f82011682018060405250810190620001399190620001b4565b600580546001600160a01b0319166001600160a01b039290921691909117905550620001d79050565b80516001600160a01b038116811462000179575f80fd5b919050565b5f806040838503121562000190575f80fd5b6200019b8362000162565b9150620001ab6020840162000162565b90509250929050565b5f60208284031215620001c5575f80fd5b620001d08262000162565b9392505050565b6080516133e8620001fe5f395f818161043d01528181610c490152610f0801526133e85ff3fe608060405234801561000f575f80fd5b50600436106101bb575f3560e01c8063556c97fb116100f3578063a03e4bc311610093578063a8674f601161006e578063a8674f60146103fd578063ac9650d814610425578063cccd6bee14610438578063dd0081c71461045f575f80fd5b8063a03e4bc3146103b0578063a2662bb4146103c3578063a6c0c93c146103ea575f80fd5b806369e4e005116100ce57806369e4e00514610350578063706713231461036357806377bfc95c146103765780639bdd70ff1461039d575f80fd5b8063556c97fb1461030b5780636372b2811461032a57806365d4dca91461033d575f80fd5b80632e1c93a51161015e5780633b06d16a116101395780633b06d16a146102bf5780633d11014d146102d25780634859074c146102e55780634f07bdb8146102f8575f80fd5b80632e1c93a51461027a5780632e72c4961461028d5780632f7801f4146102a0575f80fd5b806318df23cc1161019957806318df23cc14610221578063200985071461023457806325f70ef1146102475780632d59b3f11461025a575f80fd5b80630aa334af146101bf5780630bb0d54b146101d45780630d64a745146101e7575b5f80fd5b6101d26101cd366004612883565b610468565b005b6101d26101e23660046128ba565b610532565b61020e7fead1b1805c320f9f4c868d11a26483b98dd0dcfcb9666c846252bf46a19eb3b981565b6040519081526020015b60405180910390f35b6101d261022f3660046128e9565b6108ac565b6101d2610242366004612935565b610946565b6101d26102553660046129a1565b610aff565b610262610beb565b6040516001600160a01b039091168152602001610218565b6101d26102883660046129f1565b610d54565b61026261029b366004612a34565b610e91565b61020e6102ae366004612a34565b5f6020819052908152604090205481565b6101d26102cd366004612a4f565b610f75565b61020e6102e0366004612aaa565b611051565b6101d26102f3366004612a34565b6110fc565b6101d2610306366004612adc565b611197565b61020e610319366004612a34565b60026020525f908152604090205481565b600554610262906001600160a01b031681565b6101d261034b3660046128e9565b61148f565b600354610262906001600160a01b031681565b6101d2610371366004612b51565b6115de565b61020e7fbc407c418cb1050297012fa94ce4b4934967f853836d331f6cb9f5b39fb86ab281565b61020e6103ab366004612b89565b611c94565b600454610262906001600160a01b031681565b61020e7feb0a28b08b0b6a62fcd0b14a973f638fce569c5041d4efd1e8d6910a3485f6fb81565b6101d26103f83660046129f1565b611d2f565b61026261040b366004612a34565b60016020525f90815260409020546001600160a01b031681565b6101d2610433366004612bad565b611f17565b6102627f000000000000000000000000000000000000000000000000000000000000000081565b61020e61271081565b6001600160a01b038281165f908152600160205260409020541633146104a95760405162461bcd60e51b81526004016104a090612c1c565b60405180910390fd5b6001600160a01b038281165f90815260016020818152604080842080546001600160a01b031916958716959095179094556002905291812080549091906104f1908490612c53565b90915550506040516001600160a01b0380831691908416907f04b0c9a777cea9ab835538f2b5bbe12d544829de2b66503c97aa22c132e72790905f90a35050565b61053b82611fdb565b5f6105496020840184612a34565b6001600160a01b038082165f9081526001602052604090205491925016806105a25760405162461bcd60e51b815260206004820152600c60248201526b125b9d985b1a59081919589d60a21b60448201526064016104a0565b6105ac84826120a9565b6105ec5760405162461bcd60e51b8152602060048201526011602482015270496e76616c6964207369676e617475726560781b60448201526064016104a0565b60048054604051632fe4a15f60e21b81526001600160a01b03858116938201939093525f928392839291169063bf92857c9060240160c060405180830381865afa15801561063c573d5f803e3d5ffd5b505050506040513d601f19601f820116820180604052508101906106609190612c66565b955050505092509250865f01608001358111156106ad5760405162461bcd60e51b815260206004820152600b60248201526a0908c40e8dede40d0d2ced60ab1b60448201526064016104a0565b5f6106b88385612cac565b90505f6127106106cc60c08b013584612cbf565b6106d69190612cd6565b9050876106e38286612c53565b6106ed9087612cac565b10156107315760405162461bcd60e51b8152602060048201526013602482015272125b9cdd59999a58da595b9d081c1c9bd99a5d606a1b60448201526064016104a0565b5f6107e28261074660c08d0160a08e01612a34565b60055f9054906101000a90046001600160a01b03166001600160a01b031663b3596f078e60a001602081019061077c9190612a34565b6040516001600160e01b031960e084901b1681526001600160a01b039091166004820152602401602060405180830381865afa1580156107be573d5f803e3d5ffd5b505050506040513d601f19601f820116820180604052508101906103ab9190612cf5565b905061080e3388838d60a00160208101906107fd9190612a34565b6001600160a01b031692919061217f565b6001600160a01b0388165f908152600260205260408120805460019290610836908490612c53565b90915550506001600160a01b0388165f8181526001602090815260409182902080546001600160a01b0319163390811790915582518e8301358152918201527f55b9213cb2194f297ded5fa5df4c1f112c7b41d4853b454bceaac41f93dcfd5f910160405180910390a250505050505050505050565b6001600160a01b038381165f908152600160205260409020541633146108e45760405162461bcd60e51b81526004016104a090612c1c565b604051634a5d44d160e11b81526001600160a01b038381166004830152602482018390528416906394ba89a2906044015f604051808303815f87803b15801561092b575f80fd5b505af115801561093d573d5f803e3d5ffd5b50505050505050565b60405163d505accf60e01b81526001600160a01b0387169063d505accf9061097e90339030908a908a908a908a908a90600401612d0c565b5f604051808303815f87803b158015610995575f80fd5b505af11580156109a7573d5f803e3d5ffd5b506109c1925050506001600160a01b03871633308861217f565b6004805460405163095ea7b360e01b81526001600160a01b03918216928101929092526024820187905287169063095ea7b3906044016020604051808303815f875af1158015610a13573d5f803e3d5ffd5b505050506040513d601f19601f82011682018060405250810190610a379190612d4d565b506004805460405163617ba03760e01b81526001600160a01b03898116938201939093526024810188905289831660448201525f606482015291169063617ba037906084015f604051808303815f87803b158015610a93575f80fd5b505af1158015610aa5573d5f803e3d5ffd5b50505050856001600160a01b0316876001600160a01b03167fd1cf3d156d5f8f0d50f6c122ed609cec09d35c9b9fb3fff6ea0959134dae424e87604051610aee91815260200190565b60405180910390a350505050505050565b6001600160a01b038481165f90815260016020526040902054163314610b375760405162461bcd60e51b81526004016104a090612c1c565b604051631a4ca37b60e21b81526001600160a01b0384811660048301526024820184905282811660448301528516906369328dec906064015f604051808303815f87803b158015610b86575f80fd5b505af1158015610b98573d5f803e3d5ffd5b5050604080518581526001600160a01b0385811660208301528088169450881692507f3ed4ee04a905a278b050a856bbe7ddaaf327a30514373e65aa6103beeae488c3910160405180910390a350505050565b335f8181526020818152604080832054905192938493610c2b939192910160609290921b6bffffffffffffffffffffffff19168252601482015260340190565b6040516020818303038152906040528051906020012090505f610c6e7f0000000000000000000000000000000000000000000000000000000000000000836121f0565b6004805460405163189acdbd60e31b81526001600160a01b03918216928101929092529192509082169063c4d66de8906024015f604051808303815f87803b158015610cb8575f80fd5b505af1158015610cca573d5f803e3d5ffd5b5050506001600160a01b0382165f90815260016020818152604080842080546001600160a01b03191633908117909155845290839052822080549193509190610d14908490612c53565b909155505060405133906001600160a01b038316907f6e55b070b7e7416c8d7341302dedd1ccfdf5f70f0b02889b0eb2d2e9e7554984905f90a392915050565b600480546040516335ea6a7560e01b81526001600160a01b03868116938201939093525f92909116906335ea6a75906024016101e060405180830381865afa158015610da2573d5f803e3d5ffd5b505050506040513d601f19601f82011682018060405250810190610dc69190612e3e565b61010001519050610de26001600160a01b03821633878661217f565b60405163d114817160e01b81526001600160a01b0386169063d114817190610e14908790879087903390600401612f5f565b5f604051808303815f87803b158015610e2b575f80fd5b505af1158015610e3d573d5f803e3d5ffd5b505060408051868152602081018690526001600160a01b038089169450891692507fe4a1ae657f49cb1fb1c7d3a94ae6093565c4c8c0e03de488f79c377c3c3a24e091015b60405180910390a35050505050565b6001600160a01b0381165f908152602081815260408083205490516bffffffffffffffffffffffff19606086901b16928101929092526034820152819060540160408051601f198184030181529082905280516020909101203060388301526f5af43d82803e903d91602b57fd5bf3ff60248301527f00000000000000000000000000000000000000000000000000000000000000006014830152733d602d80600a3d3981f3363d3d373d3d3d363d738252605882018190526037600c830120607883015260556043909201919091209091506001600160a01b03165b9392505050565b6001600160a01b038581165f90815260016020526040902054163314610fad5760405162461bcd60e51b81526004016104a090612c1c565b6040516308ba54eb60e21b81526001600160a01b038616906322e953ac90610fdf908790879087908790600401612f5f565b5f604051808303815f87803b158015610ff6575f80fd5b505af1158015611008573d5f803e3d5ffd5b505060408051868152602081018690526001600160a01b038089169450891692507fc1561b330e73faa7d5d1ac03c968d8f359b0191ccdb9cc002cf7d8eb6ae038cb9101610e82565b5f80846001600160a01b031663313ce5676040518163ffffffff1660e01b8152600401602060405180830381865afa15801561108f573d5f803e3d5ffd5b505050506040513d601f19601f820116820180604052508101906110b39190612f8a565b905060086110c18282612fa5565b6110cc90600a61309e565b6110d68587612cbf565b6110e890670de0b6b3a7640000612cbf565b6110f29190612cd6565b9695505050505050565b6001600160a01b038181165f908152600160205260409020541633146111345760405162461bcd60e51b81526004016104a090612c1c565b6001600160a01b0381165f90815260026020526040812080546001929061115c908490612c53565b90915550506040516001600160a01b038216907ffbf1363ac827681b05216635069042edfbbf42f05db79097a059c6fcba32fa98905f90a250565b60405163d505accf60e01b81526001600160a01b0388169063d505accf906111cf90339030908b908a908a908a908a90600401612d0c565b5f604051808303815f87803b1580156111e6575f80fd5b505af11580156111f8573d5f803e3d5ffd5b50611212925050506001600160a01b03881633308961217f565b6004805460405163095ea7b360e01b81526001600160a01b03918216928101929092525f602483015288169063095ea7b3906044016020604051808303815f875af1158015611263573d5f803e3d5ffd5b505050506040513d601f19601f820116820180604052508101906112879190612d4d565b506004805460405163095ea7b360e01b81526001600160a01b03918216928101929092526024820188905288169063095ea7b3906044016020604051808303815f875af11580156112da573d5f803e3d5ffd5b505050506040513d601f19601f820116820180604052508101906112fe9190612d4d565b505f60045f9054906101000a90046001600160a01b03166001600160a01b031663573ade818989898d6040518563ffffffff1660e01b81526004016113469493929190612f5f565b6020604051808303815f875af1158015611362573d5f803e3d5ffd5b505050506040513d601f19601f820116820180604052508101906113869190612cf5565b90506113a733611396838a612cac565b6001600160a01b038b1691906121fc565b60045f9054906101000a90046001600160a01b03166001600160a01b031663573ade818989898d6040518563ffffffff1660e01b81526004016113ed9493929190612f5f565b6020604051808303815f875af1158015611409573d5f803e3d5ffd5b505050506040513d601f19601f8201168201806040525081019061142d9190612cf5565b50876001600160a01b0316896001600160a01b03167fe4a1ae657f49cb1fb1c7d3a94ae6093565c4c8c0e03de488f79c377c3c3a24e0898960405161147c929190918252602082015260400190565b60405180910390a3505050505050505050565b6114a46001600160a01b03831633308461217f565b6004805460405163095ea7b360e01b81526001600160a01b03918216928101929092526024820183905283169063095ea7b3906044016020604051808303815f875af11580156114f6573d5f803e3d5ffd5b505050506040513d601f19601f8201168201806040525081019061151a9190612d4d565b506004805460405163617ba03760e01b81526001600160a01b03858116938201939093526024810184905285831660448201525f606482015291169063617ba037906084015f604051808303815f87803b158015611576575f80fd5b505af1158015611588573d5f803e3d5ffd5b50505050816001600160a01b0316836001600160a01b03167fd1cf3d156d5f8f0d50f6c122ed609cec09d35c9b9fb3fff6ea0959134dae424e836040516115d191815260200190565b60405180910390a3505050565b6115e781611fdb565b5f6115f56020830183612a34565b6001600160a01b038082165f90815260016020526040902054919250168061164e5760405162461bcd60e51b815260206004820152600c60248201526b125b9d985b1a59081919589d60a21b60448201526064016104a0565b611658838261222c565b6116985760405162461bcd60e51b8152602060048201526011602482015270496e76616c6964207369676e617475726560781b60448201526064016104a0565b60048054604051632fe4a15f60e21b81526001600160a01b03858116938201939093525f929091169063bf92857c9060240160c060405180830381865afa1580156116e5573d5f803e3d5ffd5b505050506040513d601f19601f820116820180604052508101906117099190612c66565b9550505050505060808401358111156117525760405162461bcd60e51b815260206004820152600b60248201526a0908c40e8dede40d0d2ced60ab1b60448201526064016104a0565b61176d333061012087018035906107fd906101008a01612a34565b61177f61012085016101008601612a34565b6004805460405163095ea7b360e01b81526001600160a01b03918216928101929092526101208701356024830152919091169063095ea7b3906044016020604051808303815f875af11580156117d7573d5f803e3d5ffd5b505050506040513d601f19601f820116820180604052508101906117fb9190612d4d565b506004546001600160a01b031663573ade8161181f61012087016101008801612a34565b8661012001358760a00135876040518563ffffffff1660e01b815260040161184a9493929190612f5f565b6020604051808303815f875af1158015611866573d5f803e3d5ffd5b505050506040513d601f19601f8201168201806040525081019061188a9190612cf5565b505f6119306118a161012087016101008801612a34565b60055461012088018035916001600160a01b03169063b3596f07906118ca906101008c01612a34565b6040516001600160e01b031960e084901b1681526001600160a01b039091166004820152602401602060405180830381865afa15801561190c573d5f803e3d5ffd5b505050506040513d601f19601f820116820180604052508101906102e09190612cf5565b90505f805b61194260c08801886130ac565b9050811015611b165761195860e08801886130ac565b82818110611968576119686130f9565b905060200201358261197a9190612c53565b91505f61271061198d60e08a018a6130ac565b8481811061199d5761199d6130f9565b90506020020135856119af9190612cbf565b6119b99190612cd6565b90505f611a35826119cd60c08c018c6130ac565b868181106119dd576119dd6130f9565b90506020020160208101906119f29190612a34565b6005546001600160a01b031663b3596f07611a1060c08f018f6130ac565b89818110611a2057611a206130f9565b905060200201602081019061077c9190612a34565b9050612710611a496101408b013583612cbf565b611a539190612cd6565b611a5d9082612c53565b90506001600160a01b0388166369328dec611a7b60c08c018c6130ac565b86818110611a8b57611a8b6130f9565b9050602002016020810190611aa09190612a34565b6040516001600160e01b031960e084901b1681526001600160a01b039091166004820152602481018490523360448201526064015f604051808303815f87803b158015611aeb575f80fd5b505af1158015611afd573d5f803e3d5ffd5b5050505050508080611b0e9061310d565b915050611935565b506127108114611b5e5760405162461bcd60e51b815260206004820152601360248201527213db99481a1d5b991c9959081c195c98d95b9d606a1b60448201526064016104a0565b60048054604051632fe4a15f60e21b81526001600160a01b03888116938201939093525f929091169063bf92857c9060240160c060405180830381865afa158015611bab573d5f803e3d5ffd5b505050506040513d601f19601f82011682018060405250810190611bcf9190612c66565b95505050505050838111611c175760405162461bcd60e51b815260206004820152600f60248201526e4846206d75737420696d70726f766560881b60448201526064016104a0565b6001600160a01b0386165f908152600260205260408120805460019290611c3f908490612c53565b909155505060408051602089810135825233908201526001600160a01b038816917fc894ddc8c50cae80cf755cf751cd0d0b1c3f637a41c935349ac8fdfcbda60020910160405180910390a250505050505050565b5f80836001600160a01b031663313ce5676040518163ffffffff1660e01b8152600401602060405180830381865afa158015611cd2573d5f803e3d5ffd5b505050506040513d601f19601f82011682018060405250810190611cf69190612f8a565b90506008611d05816012613125565b611d1090600a61309e565b611d1a9085612cbf565b611d2583600a61309e565b6110e89088612cbf565b611d446001600160a01b03841633308561217f565b6004805460405163095ea7b360e01b81526001600160a01b03918216928101929092525f602483015284169063095ea7b3906044016020604051808303815f875af1158015611d95573d5f803e3d5ffd5b505050506040513d601f19601f82011682018060405250810190611db99190612d4d565b506004805460405163095ea7b360e01b81526001600160a01b03918216928101929092526024820184905284169063095ea7b3906044016020604051808303815f875af1158015611e0c573d5f803e3d5ffd5b505050506040513d601f19601f82011682018060405250810190611e309190612d4d565b506004805460405163573ade8160e01b81525f926001600160a01b039092169163573ade8191611e68918891889188918c9101612f5f565b6020604051808303815f875af1158015611e84573d5f803e3d5ffd5b505050506040513d601f19601f82011682018060405250810190611ea89190612cf5565b9050611ec933611eb88386612cac565b6001600160a01b03871691906121fc565b836001600160a01b0316856001600160a01b03167fe4a1ae657f49cb1fb1c7d3a94ae6093565c4c8c0e03de488f79c377c3c3a24e08585604051610e82929190918252602082015260400190565b5f5b81811015611fd6575f8030858585818110611f3657611f366130f9565b9050602002810190611f48919061313e565b604051611f56929190613181565b5f60405180830381855af49150503d805f8114611f8e576040519150601f19603f3d011682016040523d82523d5f602084013e611f93565b606091505b509150915081611fa2826122f3565b90611fc05760405162461bcd60e51b81526004016104a091906131b2565b5050508080611fce9061310d565b915050611f19565b505050565b80604001354210158015611ff3575080606001354211155b61202f5760405162461bcd60e51b815260206004820152600d60248201526c13dc99195c88195e1c1a5c9959609a1b60448201526064016104a0565b60025f61203f6020840184612a34565b6001600160a01b03166001600160a01b031681526020019081526020015f20548160200135146120a65760405162461bcd60e51b8152602060048201526012602482015271496e76616c69642064656274206e6f6e636560701b60448201526064016104a0565b50565b5f807feb0a28b08b0b6a62fcd0b14a973f638fce569c5041d4efd1e8d6910a3485f6fb46306120d787612345565b6120e760c0890160a08a01612a34565b6040805160208101969096528501939093526001600160a01b03918216606085015260808401521660a082015260c0808601359082015260e00160408051601f198184030181529190528051602090910120905061216181612150610100870160e088016131e4565b8661010001358761012001356123e6565b6001600160a01b0316836001600160a01b0316149150505b92915050565b6040516001600160a01b03808516602483015283166044820152606481018290526121ea9085906323b872dd60e01b906084015b60408051601f198184030181529190526020810180516001600160e01b03166001600160e01b031990931692909217909152612412565b50505050565b5f610f6e83835f6124e3565b6040516001600160a01b038316602482015260448101829052611fd690849063a9059cbb60e01b906064016121b3565b5f807fead1b1805c320f9f4c868d11a26483b98dd0dcfcb9666c846252bf46a19eb3b9463061225a87612345565b60a088013561226c60c08a018a6130ac565b61227960e08c018c6130ac565b61228b6101208e016101008f01612a34565b8d61012001358e61014001356040516020016122b29c9b9a9998979695949392919061322f565b60408051601f1981840301815291905280516020909101209050612161816122e2610180870161016088016131e4565b866101800135876101a001356123e6565b606060448251101561232b57505060408051808201909152601081526f135d5b1d1a58d85b1b0819985a5b195960821b602082015290565b6004820191508180602001905181019061217991906132e6565b5f7fbc407c418cb1050297012fa94ce4b4934967f853836d331f6cb9f5b39fb86ab26123746020840184612a34565b83602001358460400135856060013586608001356040516020016123c9969594939291909586526001600160a01b0394909416602086015260408501929092526060840152608083015260a082015260c00190565b604051602081830303815290604052805190602001209050919050565b5f805f806123f688888888612578565b9250925092506124068282612640565b50909695505050505050565b5f612466826040518060400160405280602081526020017f5361666545524332303a206c6f772d6c6576656c2063616c6c206661696c6564815250856001600160a01b03166126fc9092919063ffffffff16565b805190915015611fd657808060200190518101906124849190612d4d565b611fd65760405162461bcd60e51b815260206004820152602a60248201527f5361666545524332303a204552433230206f7065726174696f6e20646964206e6044820152691bdd081cdd58d8d9595960b21b60648201526084016104a0565b5f8147101561250e5760405163cf47918160e01b8152476004820152602481018390526044016104a0565b763d602d80600a3d3981f3363d3d373d3d3d363d730000008460601b60e81c175f526e5af43d82803e903d91602b57fd5bf38460781b17602052826037600984f590506001600160a01b038116610f6e5760405163b06ebf3d60e01b815260040160405180910390fd5b5f80807f7fffffffffffffffffffffffffffffff5d576e7357a4501ddfe92f46681b20a08411156125b157505f91506003905082612636565b604080515f808252602082018084528a905260ff891692820192909252606081018790526080810186905260019060a0016020604051602081039080840390855afa158015612602573d5f803e3d5ffd5b5050604051601f1901519150506001600160a01b03811661262d57505f925060019150829050612636565b92505f91508190505b9450945094915050565b5f82600381111561265357612653613383565b0361265c575050565b600182600381111561267057612670613383565b0361268e5760405163f645eedf60e01b815260040160405180910390fd5b60028260038111156126a2576126a2613383565b036126c35760405163fce698f760e01b8152600481018290526024016104a0565b60038260038111156126d7576126d7613383565b036126f8576040516335e2f38360e21b8152600481018290526024016104a0565b5050565b606061270a84845f85612712565b949350505050565b6060824710156127735760405162461bcd60e51b815260206004820152602660248201527f416464726573733a20696e73756666696369656e742062616c616e636520666f6044820152651c8818d85b1b60d21b60648201526084016104a0565b843b6127c15760405162461bcd60e51b815260206004820152601d60248201527f416464726573733a2063616c6c20746f206e6f6e2d636f6e747261637400000060448201526064016104a0565b5f80866001600160a01b031685876040516127dc9190613397565b5f6040518083038185875af1925050503d805f8114612816576040519150601f19603f3d011682016040523d82523d5f602084013e61281b565b606091505b509150915061282b828286612836565b979650505050505050565b60608315612845575081610f6e565b8251156128555782518084602001fd5b8160405162461bcd60e51b81526004016104a091906131b2565b6001600160a01b03811681146120a6575f80fd5b5f8060408385031215612894575f80fd5b823561289f8161286f565b915060208301356128af8161286f565b809150509250929050565b5f808284036101608112156128cd575f80fd5b610140808212156128dc575f80fd5b9395938601359450505050565b5f805f606084860312156128fb575f80fd5b83356129068161286f565b925060208401356129168161286f565b929592945050506040919091013590565b60ff811681146120a6575f80fd5b5f805f805f805f60e0888a03121561294b575f80fd5b87356129568161286f565b965060208801356129668161286f565b95506040880135945060608801359350608088013561298481612927565b9699959850939692959460a0840135945060c09093013592915050565b5f805f80608085870312156129b4575f80fd5b84356129bf8161286f565b935060208501356129cf8161286f565b92506040850135915060608501356129e68161286f565b939692955090935050565b5f805f8060808587031215612a04575f80fd5b8435612a0f8161286f565b93506020850135612a1f8161286f565b93969395505050506040820135916060013590565b5f60208284031215612a44575f80fd5b8135610f6e8161286f565b5f805f805f60a08688031215612a63575f80fd5b8535612a6e8161286f565b94506020860135612a7e8161286f565b935060408601359250606086013591506080860135612a9c8161286f565b809150509295509295909350565b5f805f60608486031215612abc575f80fd5b8335612ac78161286f565b95602085013595506040909401359392505050565b5f805f805f805f80610100898b031215612af4575f80fd5b8835612aff8161286f565b97506020890135612b0f8161286f565b965060408901359550606089013594506080890135935060a0890135612b3481612927565b979a969950949793969295929450505060c08201359160e0013590565b5f60208284031215612b61575f80fd5b813567ffffffffffffffff811115612b77575f80fd5b82016101c08185031215610f6e575f80fd5b5f805f60608486031215612b9b575f80fd5b8335925060208401356129168161286f565b5f8060208385031215612bbe575f80fd5b823567ffffffffffffffff80821115612bd5575f80fd5b818501915085601f830112612be8575f80fd5b813581811115612bf6575f80fd5b8660208260051b8501011115612c0a575f80fd5b60209290920196919550909350505050565b6020808252600990820152682737ba1037bbb732b960b91b604082015260600190565b634e487b7160e01b5f52601160045260245ffd5b8082018082111561217957612179612c3f565b5f805f805f8060c08789031215612c7b575f80fd5b865195506020870151945060408701519350606087015192506080870151915060a087015190509295509295509295565b8181038181111561217957612179612c3f565b808202811582820484141761217957612179612c3f565b5f82612cf057634e487b7160e01b5f52601260045260245ffd5b500490565b5f60208284031215612d05575f80fd5b5051919050565b6001600160a01b0397881681529590961660208601526040850193909352606084019190915260ff16608083015260a082015260c081019190915260e00190565b5f60208284031215612d5d575f80fd5b81518015158114610f6e575f80fd5b634e487b7160e01b5f52604160045260245ffd5b6040516101e0810167ffffffffffffffff81118282101715612da457612da4612d6c565b60405290565b5f60208284031215612dba575f80fd5b6040516020810181811067ffffffffffffffff82111715612ddd57612ddd612d6c565b6040529151825250919050565b80516fffffffffffffffffffffffffffffffff81168114612e09575f80fd5b919050565b805164ffffffffff81168114612e09575f80fd5b805161ffff81168114612e09575f80fd5b8051612e098161286f565b5f6101e08284031215612e4f575f80fd5b612e57612d80565b612e618484612daa565b8152612e6f60208401612dea565b6020820152612e8060408401612dea565b6040820152612e9160608401612dea565b6060820152612ea260808401612dea565b6080820152612eb360a08401612dea565b60a0820152612ec460c08401612e0e565b60c0820152612ed560e08401612e22565b60e0820152610100612ee8818501612e33565b90820152610120612efa848201612e33565b90820152610140612f0c848201612e33565b90820152610160612f1e848201612e33565b90820152610180612f30848201612dea565b908201526101a0612f42848201612dea565b908201526101c0612f54848201612dea565b908201529392505050565b6001600160a01b03948516815260208101939093526040830191909152909116606082015260800190565b5f60208284031215612f9a575f80fd5b8151610f6e81612927565b60ff818116838216019081111561217957612179612c3f565b600181815b80851115612ff857815f1904821115612fde57612fde612c3f565b80851615612feb57918102915b93841c9390800290612fc3565b509250929050565b5f8261300e57506001612179565b8161301a57505f612179565b8160018114613030576002811461303a57613056565b6001915050612179565b60ff84111561304b5761304b612c3f565b50506001821b612179565b5060208310610133831016604e8410600b8410161715613079575081810a612179565b6130838383612fbe565b805f190482111561309657613096612c3f565b029392505050565b5f610f6e60ff841683613000565b5f808335601e198436030181126130c1575f80fd5b83018035915067ffffffffffffffff8211156130db575f80fd5b6020019150600581901b36038213156130f2575f80fd5b9250929050565b634e487b7160e01b5f52603260045260245ffd5b5f6001820161311e5761311e612c3f565b5060010190565b60ff828116828216039081111561217957612179612c3f565b5f808335601e19843603018112613153575f80fd5b83018035915067ffffffffffffffff82111561316d575f80fd5b6020019150368190038213156130f2575f80fd5b818382375f9101908152919050565b5f5b838110156131aa578181015183820152602001613192565b50505f910152565b602081525f82518060208401526131d0816040850160208701613190565b601f01601f19169190910160400192915050565b5f602082840312156131f4575f80fd5b8135610f6e81612927565b8183525f6001600160fb1b03831115613216575f80fd5b8260051b80836020870137939093016020019392505050565b8c8152602081018c90526001600160a01b038b81166040830152606082018b9052608082018a905261014060a0830181905282018890525f906101608301908a90835b8b81101561329c5782356132858161286f565b821684526020938401939290920191600101613272565b50505082810360c08401526132b281888a6131ff565b9150506132ca60e08301866001600160a01b03169052565b61010082019390935261012001529a9950505050505050505050565b5f602082840312156132f6575f80fd5b815167ffffffffffffffff8082111561330d575f80fd5b818401915084601f830112613320575f80fd5b81518181111561333257613332612d6c565b604051601f8201601f19908116603f0116810190838211818310171561335a5761335a612d6c565b81604052828152876020848701011115613372575f80fd5b61282b836020830160208801613190565b634e487b7160e01b5f52602160045260245ffd5b5f82516133a8818460208701613190565b919091019291505056fea264697066735822122026f832319c2515326bf030dd3c0627e6975a20173ea4f1ac7c5f62c9e029c3e264736f6c63430008140033","linkReferences":{}},"methodIdentifiers":{"FULL_SELL_ORDER_TYPE_HASH()":"a2662bb4","ONE_HUNDRED_PERCENT()":"dd0081c7","ORDER_TITLE_TYPE_HASH()":"77bfc95c","PARTIAL_SELL_ORDER_TYPE_HASH()":"0d64a745","_getBaseValueFromTokenValue(address,uint256,uint256)":"3d11014d","_getTokenValueFromBaseValue(uint256,address,uint256)":"9bdd70ff","aaveDebtImplementation()":"cccd6bee","aaveOracle()":"6372b281","aavePool()":"a03e4bc3","aavePoolAddressesProvider()":"69e4e005","callBorrow(address,address,uint256,uint256,address)":"3b06d16a","callRepay(address,address,uint256,uint256)":"a6c0c93c","callRepayWithATokens(address,address,uint256,uint256)":"2e1c93a5","callRepayWithPermit(address,address,uint256,uint256,uint256,uint8,bytes32,bytes32)":"4f07bdb8","callSupply(address,address,uint256)":"65d4dca9","callSupplyWithPermit(address,address,uint256,uint256,uint8,bytes32,bytes32)":"20098507","callSwapBorrowRateMode(address,address,uint256)":"18df23cc","callWithdraw(address,address,uint256,address)":"25f70ef1","cancelDebtCurrentOrders(address)":"4859074c","createDebt()":"2d59b3f1","debtNonces(address)":"556c97fb","debtOwners(address)":"a8674f60","excutePartialSellOrder(((address,uint256,uint256,uint256,uint256),uint256,address[],uint256[],address,uint256,uint256,uint8,bytes32,bytes32))":"70671323","executeFullSaleOrder(((address,uint256,uint256,uint256,uint256),address,uint256,uint8,bytes32,bytes32),uint256)":"0bb0d54b","multicall(bytes[])":"ac9650d8","predictDebtAddress(address)":"2e72c496","transferDebtOwnership(address,address)":"0aa334af","userNonces(address)":"2f7801f4"},"id":43}